:10000000D82200203501000031010000310100003C
:1000100000000000000000000000000000000000E0
:10002000000000000000000000000000310100009E
:10003000000000000000000031010000310100005C
:10004000310100003101000031010000650F0000A6
:1000500031010000310100003101000031010000D8
:1000600031010000F91200003101000031010000EF
:10007000310100000D1300003101000031010000CA
:1000800031010000310100003101000031010000A8
:1000900031010000000000000000000031010000FC
:1000A0003101000031010000511500003101000054
:1000B0000000000010B5064C2378002B07D1054B3B
:1000C000002B02D0044800E000BF0123237010BDC4
:1000D000C00000200000000008430000084B10B5DD
:1000E000002B03D00749084800E000BF0748036819
:1000F000002B00D110BD064B002BFBD09847F9E731
:1001000000000000C4000020084300000843000075
:100110000000000010B5034B9847034B9847034B72
:10012000984710BD3904000029160000351500005D
:10013000FEE70000F8B5234A234B9A4209D0224B30
:10014000204A03E011681960043304321F498B42CE
:10015000F8D31F4B02E000221A6004331D4A934279
:10016000F9D31D4AFF211D4B8B439360FD3990232A
:100170005B001B4AD1501B4AD3780325AB430224B2
:100180002343D370D3780C27BB4308263343D37063
:10019000154B987B30229043202210439873997B13
:1001A000B943314399739A7BAA4322439A730F4A06
:1001B000516880230B4353600D4B98470D4B984774
:1001C000FEE7C0460843000000000020C0000020F9
:1001D000C0000020D802002000ED00E00000000078
:1001E00000700041005000410048004100400041C3
:1001F0008129000015140000044A116A80231B03A2
:100200000B431362024A034B5A80704700040040BC
:1002100022420000000C004010B5084A93692021DA
:100220000B439361064A074B5A80074B98470200DD
:1002300006490748074B984710BDC04600040040D8
:1002400004410000000C0040610F00000014004059
:10025000B0010020D1050000044A136A04210B43B9
:100260001362034A034B5A807047C04600040040A3
:1002700014420000000C004030B50F4B4822995C3E
:100280000125A94301242143C9B299543420195CA2
:10029000393A914302221143C9B2195449215A5C97
:1002A000AA432243D2B25A541A5C3A390A40202156
:1002B0000A43D2B21A5430BD0044004110B582B096
:1002C000064B9847002300931033054A054906481A
:1002D000064CA047064B984702B010BD59020000DB
:1002E000DC00002000080042CC01002015090000BD
:1002F0007902000030B50F4B4022995C0125A943DB
:1003000001242143C9B299543020195C313A9143F8
:1003100003221143C9B2195441215A5CAA43224312
:10032000D2B25A541A5C32390A4030210A43D2B24E
:100330001A5430BD00440041044A136A08210B439B
:100340001362034A034B5A807047C04600040040C2
:1003500015400000000C004010B5054B98470022E6
:1003600004490548054B9847054B984710BDC046C2
:1003700039030000000C0042A4010020650B0000BE
:10038000F5020000044A136A40210B431362034A3A
:10039000034B5A807047C0460004004018400000DC
:1003A000000C004030B50F4BC822995C0125A943D1
:1003B00001242143C9B29954B420195CB93A91433C
:1003C00003221143C9B21954C9215A5CAA432243DA
:1003D000D2B25A541A5CBA390A4030210A43D2B216
:1003E0001A5430BD0044004110B582B0074B984705
:1003F000002300931033064A103206490648074C82
:10040000A047074B984702B010BDC04685030000C7
:10041000DC000020001800425401002015090000F3
:10042000A503000010B50248024B984710BDC04616
:1004300010E000E09104000010B5074B9847074B0F
:100440009847074B9847074B9847074B9847074BE8
:100450009847074B984710BDAD0D0000BD02000046
:1004600059030000E9030000250400001902000000
:10047000F9010000EFF31083036072B6BFF35F8FE2
:100480007047BFF35F8F036883F3108870470000E5
:1004900010B5024B1860024B984710BDFC000020BD
:1004A0000914000070B504000D00160000280ED0DD
:1004B00000290AD0012034220649074B98472368B7
:1004C000320029002000984770BD0020F3E700208B
:1004D000F1E7C0465C3D0000DD0B000070B5040094
:1004E0000D00160000280ED000290AD001203D2260
:1004F0000649074B98476368320029002000984757
:1005000070BD0020F3E70020F1E7C0465C3D00002D
:10051000DD0B0000F8B50668002E02D03300002580
:100520000CE0104B984718E09F68BC466444A41A3E
:1005300001348F68BC420BD21D001B68002B07D012
:100540005C689442F0D8A41A9F68BC466444F0E703
:10055000B34203D02800044B9847F8BD014B98479D
:10056000FBE7C046FD0B0000290C0000F8B50500B4
:10057000446903695E1C0661037EDB0702D4037EC7
:100580009B070AD52B7E02221343DBB22B76F8BDE4
:100590006F69E368200098473C00002CF7D063683F
:1005A000F31AA2689342F2D32F0014373800064B97
:1005B0009847237C012BEBD1666032002100380084
:1005C000024B9847E4E7C046310C000015050000D7
:1005D00070B504000D00002812D000290ED00120B3
:1005E0003B220849084B984729002000074B9847B1
:1005F00000232361064B2360002070BD0020EFE73D
:100600000020EDE7703D0000DD0B0000990E0000BA
:100610006D05000010B50400431E9841C0B253227E
:100620000749084B98472000074B9847002804D1FA
:100630002000064B9847002010BD11204042FBE7E8
:10064000703D0000DD0B00004D0F0000F50E0000B6
:1006500070B582B004000D00002826D0002922D0F9
:1006600001207A221F49204B9847237E0122134301
:10067000DBB2237626001436290030001B4B984746
:10068000002814D123696B60226929003000184BBF
:100690009847237E012293432376237E9B0712D41F
:1006A000002002B070BD0020DBE70020D9E7237EE8
:1006B0000122934323767E320A4900200A4B984751
:1006C00012204042EDE701A80A4B9847237E022200
:1006D000934323762000084B984701A8074B98477F
:1006E0000020DEE7703D0000DD0B0000E50B0000A0
:1006F00015050000750400005F0F00008304000072
:1007000070B582B004000D00002823D000291FD04E
:10071000012095221D491E4B9847237E0122134339
:10072000DBB223762600143629003000194B984797
:10073000002811D029003000174B9847237E012252
:1007400093432376237E9B0711D4002002B070BD13
:100750000020DEE70020DCE7237E0122934323769E
:1007600099320A490A4B98470A204042EEE701A80D
:100770000A4B9847237E0222934323762000084B9E
:10078000984701A8074B98470020DFE7703D00001D
:10079000DD0B0000E50B0000430C000075040000B9
:1007A0005F0F00008304000010B5083800230363C6
:1007B000436A002B00D0984710BD10B508380023BD
:1007C0000363C36A002B00D0984710BD10B5040026
:1007D0002C30044B9847236A083C002B01D02000A2
:1007E000984710BD0D0D000070B504000E001500F7
:1007F00000281DD000291DD0002A1DD100203C2238
:10080000FF321049104B98474423E25A0833E35A09
:100810009A4213D1A6644C23E5520022083BE252CF
:10082000433B236320000830084B9847280070BDE5
:100830000020E4E70020E2E70120E0E71C2040423E
:10084000F5E7C046883D0000DD0B00006F12000098
:1008500070B504000200083A4423D35A4C21525A7E
:1008600093420DD00200016C083A5D1C44201552E1
:10087000C95C2000044B98472000044B984770BD8A
:10088000034B9847FBE7C0463D1200006F12000083
:1008900077120000F0B585B004000D0016000028A6
:1008A00017D0002917D0002A17D10020AC225200FF
:1008B0001249134B984703A8124B98473434200031
:1008C0000194114B9847070003A8104B9847002448
:1008D0000BE00020EAE70020E8E70120E6E701342A
:1008E000A4B2691801980A4B98472100A74201D980
:1008F000B442F4D3200005B0F0BDC046883D0000EE
:10090000DD0B0000750400004D0D000083040000A5
:10091000C10C0000F8B504000D0016001F000028EF
:1009200026D0002926D0002A26D0002B26D1002050
:100930003A221549154B9847200034303A003100CF
:10094000134B984700281BD1200008302900114B79
:10095000984700280BD1104B6360104B2360104B5D
:10096000A360104BE360104B2361104B6361F8BD33
:100970000020DDE70020DBE70020D9E70120D7E7F2
:100980000D204042F3E7C046883D0000DD0B00002B
:10099000750C00008511000095080000E9070000B3
:1009A00051080000CD070000A9070000BB070000A8
:1009B00010B50400431E9841C0B261220449054BA2
:1009C000984720000830044B9847002010BDC046CF
:1009D000883D0000DD0B00002312000070B504000C
:1009E0000D0000280BD0002907D0012077220549EF
:1009F000054B98472C60002070BD0020F6E70020D2
:100A0000F4E7C046883D0000DD0B000070B505002E
:100A10000E001400431E9841C0B283221649174BA2
:100A20009847012E11D0002E04D0022E18D00D2090
:100A3000404209E0AC62621E9441E2B228000830F4
:100A400001210F4B9847002070BD6C62621E9441DB
:100A5000E2B2280008300221094B98470020F3E752
:100A6000EC62621E9441E2B2280008300321044B7C
:100A700098470020E8E7C046883D0000DD0B0000F5
:100A800081120000F8B505000E001700002823D0E1
:100A9000002923D0002A23D10020F1221149124B32
:100AA00098472C0008342000104B98470028F8D0B5
:100AB0000025715D20000E4B984720000B4B984796
:100AC0000028FAD00135BD42F3D32000094B9847E6
:100AD0000028FAD02800F8BD0020DEE70020DCE77F
:100AE0000120DAE7A83D0000DD0B00004D120000F8
:100AF0003512000057120000F8B5CE46474680B5C3
:100B0000051E884691461FD000291FD0002A1FD1FC
:100B10000020862252000F490F4B984700262C00D8
:100B2000083420000D4B98470028F8D043469F1901
:100B300020000B4B9847387001364E45EFD33000FC
:100B40000CBC90469946F8BD0020E2E70020E0E7A3
:100B50000120DEE7A83D0000DD0B0000631200006D
:100B60004512000070B504000D00002814D00029C3
:100B700010D0012034220949094B98472000083041
:100B80002900084B9847002803D1074B6360074BA7
:100B9000236070BD0020EDE70020EBE7A83D0000DA
:100BA000DD0B000059110000F90A0000850A000061
:100BB00010B50400431E9841C0B253220449054BAE
:100BC000984720000830044B9847002010BDC046CD
:100BD000A83D0000DD0B000011120000002800D12C
:100BE00000BE70470368002B03D08B4203D01B6804
:100BF000F9E7002070470120FCE7000070B5040011
:100C00000D00064B984701235840C0B239220449D1
:100C1000044B984723682B60256070BDE50B0000EE
:100C2000C43D0000DD0B000003680B6001607047ED
:100C30000368002B03D01A68026018007047002078
:100C4000FCE7002912D00368994204D11B680360B5
:100C500001200AE01300002B02D01A689142F9D15A
:100C6000002B05D00A681A60012070470020FCE7BD
:100C70000020FAE770B504000E001500002812D01D
:100C8000002912D0002A12D1002028220A490B4B39
:100C900098476B1E2B420CD163600023A360E36076
:100CA0002660002070BD0020EFE70020EDE7012066
:100CB000EBE70D204042F5E7E43D0000DD0B0000CE
:100CC00070B504000D00002816D0002912D00120B4
:100CD00040220C490C4B9847A368E2689A420DD019
:100CE000626813402268D35C2B70A3680133A36051
:100CF000002070BD0020EBE70020E9E70A20404219
:100D0000F7E7C046E43D0000DD0B000070B50400CD
:100D10000D00431E9841C0B251220A490A4B984720
:100D20006368E26813402268D554E368A2689A1A9F
:100D300061688A4201D9591AA1600133E360002039
:100D400070BDC046E43D0000DD0B000010B504009E
:100D5000431E9841C0B267220349044B9847E0689C
:100D6000A368C01A10BDC046E43D0000DD0B0000C2
:100D70000300064A1268002A04D0044A1068C31807
:100D8000136070470249014A1160F6E70001002034
:100D9000D822002001204042704780239B014B60F5
:100DA00000207047012070470020704710B5084AA6
:100DB000536806210B435360064B9847064B9847F0
:100DC0000820064CA047064B9847F720A04710BDC7
:100DD000004000415D0E000021130000E50D000001
:100DE0006D130000C30709D5164B802252009A608C
:100DF000154A5A60134B5B78DB09FBD1830709D591
:100E0000104B0222FF329A60104A5A600D4B5B78F9
:100E1000DB09FBD1430709D50A4B812252009A60B6
:100E20000B4A5A60074B5B78DB09FBD1030708D5F7
:100E3000044B084A9A60084A5A60024B5B78DB0907
:100E4000FBD17047000C00400007010001032100A6
:100E500002062100037D000003060100064B1A7AFA
:100E6000D2B21A725A7AD2B25A729A7AD2B29A72AA
:100E7000DA7AD2B2DA7270470004004010B504008A
:100E8000C3681B7ADB0706D50368002B00D09847A0
:100E9000E36801221A7210BD70B504000D00431EF4
:100EA0009841C0B233221049104B9847E5600123A6
:100EB0002B80AB7ADB09FCD1E268937ADB09FCD1A9
:100EC00080331380937ADB09FCD1E2689369202395
:100ED0009361937ADB09FCD10133E268D371044B4F
:100EE0001C60002070BDC046083E0000DD0B000005
:100EF0000401002010B5041E20D0C368002B1BD0B5
:100F000001206A220E490F4B984708220E4B1A60A7
:100F1000E268136900231361937ADB09FCD1E2686C
:100F2000937ADB09FCD1138802210B439BB2138017
:100F3000937ADB09FCD110BD0020E2E70020E0E756
:100F4000083E0000DD0B000000E100E0C268937A7B
:100F5000DB09FCD113885B080120184070477047FB
:100F60000020704710B5024B1868024B984710BD1F
:100F7000040100207D0E0000024B9C466044800A64
:100F8000C0B2704700F8FFBD10B58469237EDB074F
:100F900002D5A37DDB070FD4237E9B0702D5A37D5B
:100FA0009B070ED4237E5B0715D5628B37231A422D
:100FB0000CD00833638310BD012323750368984761
:100FC000F9E70223237583689847F4E74368218D86
:100FD000C9B29847EFE7237EDB09ECD08023237664
:100FE000C3689847638B9BB26383E4E7064B9842E0
:100FF00003D0064B984203D07047054B1960F8E7C1
:10100000034B5960F8E7C046000800420018004250
:101010000801002010B5024B98470930C0B210BD3E
:10102000790F000010B50C4B9847010000200228F2
:1010300009D883001B189A00084BD35C994209D049
:101040000130C0B2F3E79822920005490020054B19
:101050009847002010BDC046790F0000203E0000D8
:10106000983E0000DD0B000070B50400384B984737
:10107000E369DB071DD483001B189A00354B9B18CE
:101080005A681C231A40E3699B07FCD123689B071D
:1010900009D5236802218B432360E3699B07FCD1B8
:1010A000E3699B07FCD4012313432360E3699B0797
:1010B000FCD1E369DB07FCD483001B189A00254BA5
:1010C0009B185B682360E3699B07FCD183001B18B6
:1010D0009A00204B9B189B686360E3695B07FCD117
:1010E00083001B189A001B4B9B185B689A040BD457
:1010F000C022D201134207D183001B189A00154B5E
:101100009B189B89A38115E083001B189A00114945
:1011100089188A89A389D204D20C5B0B5B03134321
:10112000A3818B7B07221A40A3895203DB04DB0CCB
:101130001343A381074A83001D18A9000D0051180D
:10114000C97BA1735219127C3023E254002070BD78
:1011500025100000203E000070B505000C00431E65
:101160009841C0B2B8220449044B98472C60200033
:10117000034B984770BDC046983E0000DD0B000051
:101180006910000070B506000C00431E9841C0B203
:10119000C6221949194B98472000194B9847051E3C
:1011A00001D0280070BDB46131002000154B984774
:1011B0002000154B984743B2002B0ADB1F2101404A
:1011C00001228A408021114C6250BFF34F8FBFF340
:1011D0006F8F002B07DB1F21014001228A40C021B5
:1011E00049000A4C6250002BDBDB1F2318401E3BDA
:1011F0008340064A1360D4E7983E0000DD0B0000F0
:1012000069100000ED0F00001510000000E100E083
:101210000268136802210B431360D3699B07FCD15A
:1012200070478269136802210B431360D3699B07DF
:10123000FCD17047036889B219857047836989B208
:10124000198570470368188DC0B270470368187E0F
:1012500001231840704703681B7E5B08012018407B
:10126000704703681B7E9B08012018407047836904
:1012700001229A757047836902229A7570470000AF
:1012800070B504000D001600431E9841C0B28822BC
:1012900092001749174B9847002D0BD0022D09D00B
:1012A000012D18D0032D0FD1A369002E1CD0802250
:1012B0009A7509E0A369002E07D101221A75A36966
:1012C000002E05D102221A7570BD01229A75F6E72B
:1012D00002229A75F8E7A369002E02D104221A753A
:1012E000F2E704229A75EFE780221A75ECE7C04610
:1012F000983E0000DD0B000010B5024B1868024B51
:10130000984710BD08010020890F000010B5024B5E
:101310005868024B984710BD08010020890F000053
:10132000104B196A090C1A6A920F920709040E48A9
:1013300001400A43A12149000A431A629A694139CE
:10134000FF390A439A611A7F1D310A401A77054B0B
:10135000DB681B07FBD5034A136A80210B4313622A
:101360007047C046000800400000FF0F8622D201EF
:101370001C4B5A8002221C4B9A841B4BDB68DB06F9
:10138000FBD51A4A184BDA62194B1B689B0E3F2B90
:1013900020D09B02802292001343134A93620623BB
:1013A0009384938C5B0718D50F4BDA68D0231340D6
:1013B000D02BF9D10C4A938C80210B439BB29384A0
:1013C000084B5B78DB09FBD1074A936902218B4309
:1013D00093617047FC23DB01DFE7034BDB68DB062F
:1013E000FBD5E7E7000C004000080040DC050A28B8
:1013F00024608000024B034A5A6005221A6070473D
:1014000010E000E0FFFFFF0010B5014B984710BD52
:10141000F513000010B5044B9847044B9847044B54
:101420009847044B9847FCE715010000711900002C
:10143000452300008918000010B50248024B984768
:1014400010BDC046CC010020B109000070B51348A2
:10145000134B98471348144B984700240AE00F4D4C
:1014600021002800114B984721002800104B984775
:101470000134A4B2012CF2D900240BE063001B1943
:101480005A000C4BD218E1B204480C300A4B984772
:101490000134A4B2012CF1D9002070BD000000205D
:1014A000E925000030020020152700002927000050
:1014B0004927000024020020A923000010B50122C2
:1014C000024B9A701420024B984710BD1001002067
:1014D0009923000010B5014B984710BDBD140000C2
:1014E00070B50E4B1B79002B11D10C4C14232361CA
:1014F0000B4B63610126267621000831094D280037
:10150000094B984726712800084B984770BD03493E
:1015100008310448064B9847E7E7C0461001002011
:10152000D5140000B001002051060000150600008F
:101530000107000010B5034B9847034B9847034B36
:10154000984710BDE11400004D140000391400004C
:1015500010B5024B9847024B984710BD99270000E1
:10156000BD27000010B50B00002809D1110018009C
:10157000054B9847002800DB10BD01204042FBE7E7
:1015800001204042F8E7C046E115000010B50B000D
:101590000138022809D811001800054B9847002887
:1015A00000DB10BD01204042FBE701204042F8E78C
:1015B0000516000070B50600064D2B6898680021DE
:1015C000054CA0472B6858680021A047034B1E60BC
:1015D00070BDC0465C0000200D2A00002C010020D8
:1015E00010B50400054B1868002804D08AB2210009
:1015F000034B984710BD0020FCE7C0462C0100209B
:10160000DD04000010B50400054B1868002804D064
:101610008AB22100034B984710BD0020FCE7C0466A
:101620002C010020A504000010B5044C2000044B40
:1016300098472000034B984710BDC046A4010020E6
:10164000B10B0000B5150000031E08D0002001E01A
:10165000013013005A1C1B78002BF9D17047002071
:10166000FCE710B5002808D0040002E02170013426
:101670001A00531E9BB2002AF8D110BD10B50028E5
:101680000ED0002916D088420BD98B1898420ED95B
:10169000002303E0CC5CC45401339BB29342F9D3E2
:1016A00010BD0023FAE7013A8B5C835492B2002A02
:1016B000F9D1F5E70020F3E700280AD0002909D086
:1016C000030002E001311A7001330A78002AF9D1CF
:1016D0001A7070470020FCE701E001300131037807
:1016E000002B04D00A78002A01D09342F5D0087864
:1016F000181A704703781B02427813431B02827842
:1017000013431B02C07818437047000070B50D00EA
:101710000F4B1B78012B13D0010000200D4CA0476C
:101720000121A0470021A0470121A047002D09D198
:101730000021084B9847020003210720064B9847D9
:10174000012070BD0121034B98470200F4E7C04619
:10175000C5020020DD1E0000291F000070B50D002D
:101760000F4B1B78012B18D0010000200D4CA04717
:101770000221A0470021A0470421A047290EA0472D
:10178000290CC9B2A047290AC9B2A047E9B2A047AB
:10179000020003210720044B9847012070BDC0467A
:1017A000C5020020DD1E0000291F000070B50E00DC
:1017B00015000C4B1B78012B12D0010000200A4CA5
:1017C000A0470321A047290AA047E9B2A0472A0061
:1017D0003100064B9847020003210720044B98472D
:1017E000012070BDC5020020DD1E0000ED1E0000BE
:1017F000291F000070B50D000B4B1B78012B10D07A
:1018000001000020094CA0470421A0470021A04767
:101810000121A0472900A047020003210720044B13
:101820009847012070BDC046C5020020DD1E0000A3
:10183000291F0000007870470078704710B5014BF1
:10184000984710BDF51600000B4B1B680B4A126839
:10185000991A01290FD0934202D2D31A162B0AD813
:10186000074B9A4202D3074A044B1A60034A136893
:10187000591C116018707047880200206C0200200B
:101880008702002070020020F8B507E0314B1C8869
:10189000621C1A80304B9847304B18552D4B1B88D3
:1018A0001E2B03D82E4B98470028EFD1294B1B88BD
:1018B000062B49D9002407E0691C2848415CC9B2BD
:1018C000AA290ED00134A4B2224B1A882500131B7A
:1018D000062B33DD2149095D5529EDD00134A4B231
:1018E000F2E7A91C1D48415C002902D00234A4B2D1
:1018F000EAE7291D1948465C3602691D415C07313B
:101900007618B6B2262E02D90334A4B2DCE7B3426D
:1019100014DB711E89B2114FE019124B9847AD19B3
:10192000013D7B5DDBB2984202D00334A4B2CBE729
:1019300020000D4B9847A419A4B2C5E7121B92B220
:10194000044B1A80002A00D1F8BD04482118074B27
:101950009847F9E730010020E12200004C02002006
:10196000C52200000D1F00006D2100007D16000043
:10197000054B064A1360064A13600022054B1A7095
:10198000FF32054B1A707047700200206C02002075
:1019900088020020C5020020C302002010B50A0002
:1019A00001001320024B9847012800D0002010BDF1
:1019B000AD17000010B5054B984701000120044BFE
:1019C0009847012800D0002010BDC04635180000FF
:1019D0000D17000010B5054B984701000220044B7D
:1019E0009847012800D0002010BDC04635180000DF
:1019F0000D17000010B5054B984701000320044B5C
:101A00009847012800D0002010BDC04635180000BE
:101A10000D17000010B5054B984701000420044B3A
:101A20009847012800D0002010BDC046351800009E
:101A30000D17000010B5054B984701000D20044B11
:101A40009847012800D0002010BDC046351800007E
:101A50000D17000010B5054B984701001020044BEE
:101A60009847012800D0002010BDC046351800005E
:101A70000D17000010B5054B984701000720044BD7
:101A80009847012800D0002010BDC0463D18000036
:101A90005D17000010B5054B984701000820044B66
:101AA0009847012800D0002010BDC0463D18000016
:101AB0005D17000010B5054B984701000920044B45
:101AC0009847012800D0002010BDC0463D180000F6
:101AD0005D17000010B5054B984701000A20044B24
:101AE0009847012800D0002010BDC0463D180000D6
:101AF0005D17000010B5054B984701006520044BA9
:101B00009847012800D0002010BDC0463D180000B5
:101B10005D17000010B5054B984701000E20044BDF
:101B20009847012800D0002010BDC0463918000099
:101B3000F517000010B5054B984701000F20044B26
:101B40009847012800D0002010BDC0463918000079
:101B5000F517000010B5054B984701006720044BAE
:101B60009847012800D0002010BDC0463918000059
:101B7000F517000010B5014B984710BD7D230000FC
:101B800070B500210120184CA04700210220A04779
:101B900000210320A04700210420A04700210720A6
:101BA000124DA84700210820A84700210920A84776
:101BB00000210A20A84700210D20A04700210E2067
:101BC0000B4EB04700210F20B04700211020A04746
:101BD000022208491320084B984700216520A84796
:101BE00000216720B04770BD0D1700005D17000091
:101BF000F517000074400000AD17000010B50C0090
:101C000067284ED88000284B1B589F4611002000A3
:101C1000264B984710BD11002000254B9847F9E747
:101C200011002000234B9847F4E711002000224BBD
:101C30009847EFE711002000204B9847EAE7110092
:101C400020001F4B9847E5E7110020001D4B9847E7
:101C5000E0E7110020001C4B9847DBE71100200053
:101C60001A4B9847D6E711002000194B9847D1E747
:101C700011002000174B9847CCE711002000164BAD
:101C80009847C7E711002000144B9847C2E711009E
:101C90002000134B9847BDE711002000114B9847D7
:101CA000B8E70020B6E7C046B43E0000B519000012
:101CB000D5190000F5190000151A0000751A00006A
:101CC000951A0000B51A0000D51A0000351A000058
:101CD000151B0000351B0000551A00009D1900005F
:101CE000F51A0000551B00000F20704770470000D8
:101CF00030B585B00D2200216846174B9847002467
:101D0000002511E0AA00154BD25815496B46581C06
:101D1000144B9847C2B26B461A70013269462000D4
:101D2000114B984704000135032DEBDD01220F49CB
:101D30006B46581C0B4B9847C2B26B461A70013267
:101D400069462000084B9847020003212020084BD9
:101D5000984705B030BDC046C929000048000020A2
:101D600078400000792B0000ED1E0000804000004C
:101D7000291F000070470000F0B591B005000E006B
:101D8000170001933222002103A8234B9847002E0D
:101D900027D13C7824067B781B041C43BB781B02AC
:101DA0001C43FB781C431D4928001D4B9847002805
:101DB0001ED01C4928001A4B984700281FD01A49EA
:101DC0002800174B984700281FD018492800144BAB
:101DD0009847002811D103AA01991548154B984737
:101DE0000BE0012EDFD1390003A8134B9847DAE747
:101DF0002200019911480F4B984711B0F0BD220005
:101E000001990F480B4B9847F7E7220001990D48BD
:101E1000084B9847F1E7C046631600008C4000006D
:101E2000D9160000B0400000DC4000000041000076
:101E30000C410000D9290000B916000094400000B0
:101E4000BC400000E44000007047704770B5051EBC
:101E50000BD0002905D108E02878044B98470135BC
:101E600021004C1EA4B20029F6D170BD751B0000E4
:101E700010B50400074B984701000020884207D2A4
:101E80004300054A9B5CA34202D00130C0B2F5E793
:101E900010BDC046E91C000054400000F8B5050024
:101EA0000678477882781202C378D21894B230004C
:101EB000074B984743000748C01843789F4201D01A
:101EC0000020F8BD291D22003000034B9847F8E799
:101ED000711E000054400000FD1B0000831D024ADB
:101EE000D154013080B270478C02002070B50400DC
:101EF00015000630034BC018034B98476419A0B275
:101F000070BDC0468C0200207D16000010B5002276
:101F1000002305E004781219D2B201339BB20130DC
:101F20008B42F7D3100010BD70B50C4C55232370B5
:101F300055336370A170E070130A2371D3B26371DB
:101F4000D51DADB2063291B22000054B98476B1EED
:101F5000E05429002000034B984770BD8C020020FC
:101F60000D1F00004D1E000010B50C4B1B78002B00
:101F70000AD0012100200A4B9847C2B292B2032135
:101F80000020084B984710BD00210020044B9847C3
:101F9000C2B20121014B1970F0E7C04632010020A6
:101FA000DD1E0000291F0000F0B5C64600B5244C18
:101FB0002000244EB04782B221000020224DA847C5
:101FC0008046224F3800B04782B2FF24404620406E
:101FD0003900A84780461E4F3800B04782B24046BD
:101FE00020403900A84780461A4F3800B04782B2D7
:101FF000404620403900A8478046174F3800B04778
:1020000082B2404620403900A8478046134F38002E
:10201000B04782B2404620403900A8478046104F62
:102020003800B04782B2404620403900A84722001D
:102030000240032101200B4B984704BC9046F0BDA1
:10204000E441000049160000ED1E0000EC410000D4
:102050000042000008420000104200001842000048
:102060001C420000291F000010B50022032102209D
:10207000014B984710BDC046291F0000F0B5DE4651
:1020800057464E464546E0B5A1B0060089460F22A8
:1020900000211CA8304CA0476422002103A8A047BF
:1020A0003378012B06D021B03CBC90469946A2461D
:1020B000AB46F0BD4B46002BF5D001270EE00132B8
:1020C000B218434651466A2002ACA4466044234CF1
:1020D000A0470335019B9C4665447F194F4535DA7F
:1020E000F55D0F2200211CA81D4B98477C1C31195F
:1020F000AA1E92B21CA81B4B98477B19F35C303B7D
:10210000DBB298462C19335D9A46012BCBD864225A
:10211000002103A8124B9847621CB35C01935346FD
:10212000002BCCD05346012BD3D10132B1186B46D2
:102130009A8803A80B4B9847434603AA51466A2046
:1021400002ACA4466044054CA047C2E7002200212F
:102150002120054B9847A6E7C9290000791D0000FA
:10216000631600007D160000291F0000F0B583B043
:1021700006000190C31C414AD35CDBB22D2B05D86D
:102180009B003F4AD3589F463E4B984703B0F0BD53
:102190003D4B9847FAE73D4B9847F7E70636374BF4
:1021A0009B5DDBB23A4C2370002203210320394BA4
:1021B00098472378032BE9D1374B5B78002BE5D187
:1021C000364B98470122344B5A70DFE70122344BDB
:1021D0001A70DBE70122334B1A70D7E7031D274A39
:1021E000D75C3F02431DD35C1F43002513E0019BD6
:1021F0000633EB18991C214A545C24020333D35C48
:10220000E418A4B2701906308018274B98472C198F
:10221000A4B20434A5B2BD42E9D3B7E7234B984733
:10222000B4E7821D154B985CC0B20736995DC9B200
:102230001F4B9847AAE7821D104B985CC0B2073627
:10224000995DC9B21B4B9847A0E7031D0B48C35CBF
:102250001B02721D815C194306363018164B9847D5
:1022600094E7063605483018144B98478EE7063633
:10227000024B985DC0B2124B984787E74C02002092
:102280002C410000691F0000A91F00006920000008
:10229000C3020020291F000032010020F11C0000B1
:1022A000C40200206B0200209D1E0000811B000064
:1022B000ED1C0000751D00007D2000004B1E00007D
:1022C000491E0000044B1A68044B1B689A4201D057
:1022D000012070470020FCE76C02002088020020EB
:1022E0000A4B1B680A4A126893420CD0094A93426F
:1022F00002D3094A054B1A60044A1368591C11603D
:102300001878C0B270470020FCE7C0468802002061
:102310006C020020870200207002002010B582B0FD
:102320006B46DC1D012221000348044B98472078AE
:10233000034B984702B010BD54010020DD0400009B
:102340004918000010B582B0074C084A002120004F
:10235000074B984701A92000064B98472000064BE1
:10236000984702B010BDC046540100201D23000054
:102370000D0A0000DD090000B109000000B583B0BE
:1023800001A9087001220248024B984703B000BD22
:1023900054010020A5040000024A1388C0181080D0
:1023A0007047C0463401002010B50B2300280BD025
:1023B000002A09D001330C005C4381680B3B0B55AC
:1023C0008368191900234A60180010BC02BC084732
:1023D0007F21044A53788B43DBB2002B01D0537822
:1023E000F9E77047004C0042F0B5062401250C497E
:1023F0000C4A096813880868008883420BD22600BB
:102400005E438F68F65D2E4202D101339BB2F4E742
:102410001380002002E0002301201380F0BDC0469D
:10242000CC02002038010020F0B5664C87B00700D0
:10243000A0470221644B654D1A7826008A431A7022
:10244000FA0003922A68F90052681C005218927828
:102450005F4B510701D419691DE0110705D4802095
:1024600019695C4A4001114006E0D10609D4802078
:102470001969584A800111400143196159690A409C
:1024800007E01969920606D4C02080010143196152
:102490005A69024304E04F4A1140196159690A40E0
:1024A0005A61B0472B68FA005B689B185B882382EF
:1024B000B0472B68FA005B689B5A6382B0470623DB
:1024C0002A685F439368DB199B8823839368DB1931
:1024D0001978890701D5052119709368DF5DB04728
:1024E000FF067F0F3F23002F08D12B68039A5B68FC
:1024F0009B185B79384A1B09D3181B7AA376B0471F
:102500002B68039A5B68304F9B181B791B09E37695
:10251000B04703212B68039A5B689B181A792379CB
:102520000A408B4313432371B04707212B680225D0
:10253000039A5B689B189A79637B0A408B43134329
:102540006373B04723782B432370244B5B6803935A
:10255000002B2ED00124B0473B7B1B071B0F04939D
:10256000B0473B799B079B0F0593B0473B78AB4344
:102570003B70B0477B791C43B04708212C43184B74
:10258000E4B27C711A6813780B431370B0477C7BFC
:10259000B04707227B7BE4B293437B73059A114BD0
:1025A000009404990020039CA047B0473B781D434A
:1025B0003D70B04780227B7B524213437B7307B050
:1025C000F0BDC046D1230000004C0042CC020020E8
:1025D00000440042FFCFFFFF2042000038010020EE
:1025E000C80200200D4C0042F7B580243F49404B03
:1025F0000A69E4001A4022430A614A690B26134023
:1026000023434B6100286ED0036819880023009390
:1026100001939AB291420CD94468DA00A218148846
:10262000019D0133254301955288009C1443009479
:10263000EFE7009B0226002B55D0019B009A1B045C
:102640001A439446002001210F242A4F0E37634677
:10265000C3400B4225D0C35D1F2B0ED8264D5A0810
:10266000521915780B4203D010262540354301E05E
:10267000A5430D431570214A0FE0203B204DDBB2EE
:102680005A08521915780B4203D0102625403543BD
:1026900001E0A5430D4315701A4A9B181A780A43A6
:1026A0001A7001302028D2D1174DA8470023174CAB
:1026B000174F23703E7A002E0AD1A8476B469B889D
:1026C000E382A8476B461B88A38201233B720AE082
:1026D0000026A847E38A019A1A43E282A847A38A00
:1026E000009A1A43A2823000FEBDC0460044004258
:1026F000FFF8FFFF20420000304400414044004109
:10270000B0440041C0440041D1230000004C0042CD
:10271000380100200B23002802D0024B1860002350
:1027200018007047D00200200B2300280AD003684D
:102730001A8802238A4205D3043359438268053B31
:102740008B54002318007047020010B50B20002A9C
:102750001FD0136809381C888C421AD39B78926862
:10276000402B05D18D203A3B4B438000D31807E026
:10277000803BDBB2012B05D806234B430548D31819
:102780009880002006235943511802220B781343E6
:102790000B7010BD670500000220074B9A7AD2B279
:1027A000024202D0997A0143997201210A4202D071
:1027B0009A7A0A439A727047004C004270B5214BD6
:1027C00098470222204C2378934323701F4B98474D
:1027D000A18BA08B1E4C1F4A238812685B00D0522D
:1027E0001D4B89B21B782500012B02D0022B0FD084
:1027F00027E0238801332380184B9847002805D110
:10280000174B20889847042323721AE0E36817E0E7
:10281000144B1E6823887268DC0014190F2260793B
:102820001040A2790024904201D2121AD4B206229A
:10283000E1405343B068C318598002232B722B69BF
:10284000984770BDD1230000004C0042992700003A
:1028500038010020D002002058000020E9230000A9
:1028600029240000CC020020002243088B4274D3AC
:1028700003098B425FD3030A8B4244D3030B8B4281
:1028800028D3030C8B420DD3FF22090212BA030C8A
:102890008B4202D31212090265D0030B8B4219D36B
:1028A00000E0090AC30B8B4201D3CB03C01A52418B
:1028B000830B8B4201D38B03C01A5241430B8B42D3
:1028C00001D34B03C01A5241030B8B4201D30B03BC
:1028D000C01A5241C30A8B4201D3CB02C01A5241E3
:1028E000830A8B4201D38B02C01A5241430A8B42A6
:1028F00001D34B02C01A5241030A8B4201D30B028F
:10290000C01A5241CDD2C3098B4201D3CB01C01AA8
:10291000524183098B4201D38B01C01A52414309B2
:102920008B4201D34B01C01A524103098B4201D3A0
:102930000B01C01A5241C3088B4201D3CB00C01A0D
:10294000524183088B4201D38B00C01A5241430885
:102950008B4201D34B00C01A5241411A00D20146AA
:10296000524110467047FFE701B5002000F006F81D
:1029700002BDC0460029F7D076E770477047C046D1
:1029800070B500260C4D0D4C641BA410A64209D155
:10299000002601F0A9FC0A4D0A4C641BA410A642B3
:1029A00005D170BDB300EB5898470136EEE7B30090
:1029B000EB5898470136F2E7F4420000F442000079
:1029C000F4420000F842000003008218934200D154
:1029D000704719700133F9E70FB40B4B13B51C683E
:1029E000002C05D0A369002B02D1200000F0AAFA28
:1029F00005AB049AA1682000019300F0E5FD16BC28
:102A000008BC04B01847C0465C0000204A424A4156
:102A1000802310B55200DB0000F002F810BD00006A
:102A2000F0B51D004F4B85B01E6804000F000092EA
:102A3000002E05D0B369002B02D1300000F082FADD
:102A4000494B9C4250D17468009B022B05D0012B4E
:102A500000D984E0002D00DA81E02100300000F090
:102A600003FA616B002908D023004433994202D055
:102A7000300000F073FB002363630023A3616360F5
:102A8000A3891B0603D52169300000F067FBA389E9
:102A9000364A1340A381009B022B5AD003AB02AAF3
:102AA0002100300000F0E4FAA3891843A081002D32
:102AB00024D1029D280000F047FB0195071E42D15A
:102AC000029B0193AB4239D1012040420223A289EB
:102AD0001343A3810023A3602300473323602361B2
:102AE0000123636105B0F0BD214B9C4201D1B46864
:102AF000AAE7204B9C42A7D1F468A5E7002FD9D0C4
:102B0000B369002B02D1300000F01CFA009B012BAE
:102B100003D1A389009A1A43A2810820A3892760C0
:102B200027616561184018D00120184000239842A1
:102B300011D06D42A360A5611800D3E7019800F0A1
:102B400003FB071EC0D08023A289019D1343A381EC
:102B5000D6E70020BAE7A560C4E7A060C2E701207D
:102B60004042BFE75C000020744200005CF3FFFFBE
:102B700094420000544200000EB410B59DB002A96A
:102B8000029008610B48822488604861012040421D
:102B90001FABC881084804CBA400006801938C8156
:102BA00000F0E6FB0023029A13701DB010BC08BCB5
:102BB00003B01847FFFFFF7F5C000020F8B5050059
:102BC0000E001400002804D08369002B01D100F00E
:102BD000B9F9224B9C422DD16C68A369A360A389EB
:102BE0001B0731D52369002B2ED023682269F7B249
:102BF000981A6369F6B2984205DB2100280000F0BC
:102C000033F9002826D1A3680130013BA360236873
:102C10005A1C22601F706369984204D0A389DB07A5
:102C20001AD50A2E18D12100280000F01DF900281D
:102C300012D00FE00A4B9C4201D1AC68CDE7094BA2
:102C40009C42CAD1EC68C8E72100280000F00CF8CB
:102C50000028CAD0012676423000F8BD7442000038
:102C60009442000054420000364B70B51D680600C7
:102C70000C00002D05D0AB69002B02D1280000F01C
:102C800061F9314B9C420FD16C680C23E25E93B228
:102C900019072DD4D90611D4092301203360373305
:102CA0001343A381404270BD284B9C4201D1AC68C4
:102CB000EBE7274B9C42E8D1EC68E6E75B0713D5CE
:102CC000616B002908D023004433994202D03000C0
:102CD00000F044FA002363632422A3899343A38171
:102CE00000236360236923600823A2891343A3811F
:102CF0002369002B0BD1A0218022A3898900920097
:102D00000B40934203D02100300000F0D9F9012399
:102D1000A289134011D00023A36063695B42A361C1
:102D2000002023698342BED10C23E25E1306BAD58C
:102D300040231343A3810138B5E7920700D46369A8
:102D4000A360EDE75C0000207442000094420000A4
:102D500054420000F7B58A8905000C00130760D4BF
:102D60004B68002B04DC0B6C002B01DC0020FEBD4B
:102D7000E76A002FFAD000232E682B6080235B01C6
:102D80001A4034D0606DA3895B0706D56368C01A0A
:102D9000636B002B01D0236CC01A0200216A002350
:102DA0002800E76AB847A189431C06D12B681D2B70
:102DB00031D82C4ADA40D3072DD50023636023692C
:102DC0002360CB0405D5431C02D12B68002B00D116
:102DD0006065616B2E600029C8D02300443399429E
:102DE00002D0280000F0BAF900206063BFE7012399
:102DF000216A2800B847431CC5D12B68002BC2D0DC
:102E00001D2B01D0162B01D12E60AFE74023A289E4
:102E10001343A381ABE740230B430120A38140422E
:102E2000A5E70F69002FA1D00B680F60DB1B019392
:102E30000023920700D14B69A360019B002B00DCAB
:102E400094E7019B3A00216A2800A66AB04700284F
:102E500003DC4023A2891343DFE7019B3F181B1AC1
:102E60000193EAE7010040200B6970B505000C00F2
:102E7000002B01D1002070BD002804D08369002BF5
:102E800001D100F05FF80B4B9C4209D16C680C2219
:102E9000A35E002BEED021002800FFF75BFFEAE7DE
:102EA000054B9C4201D1AC68F1E7044B9C42EED14A
:102EB000EC68ECE7744200009442000054420000C9
:102EC00010B5024900F0B2F810BDC046692E0000EE
:102ED000002310B504000360436083608181436672
:102EE000C281036143618361190008225C30FFF7EE
:102EF0006BFD054B24626362044BA362044BE362E7
:102F0000044B236310BDC046353B00005D3B000011
:102F1000953B0000C13B000070B568254A1E554333
:102F20000E002900743100F063F9041E08D000215E
:102F30002A00016046600C30A0606832FFF744FD53
:102F4000200070BD836913B50400002B28D1836471
:102F5000C3640365134B144A1B6882620193984251
:102F600001D101238361200000F020F8606020007F
:102F700000F01CF8A060200000F018F80022E060CB
:102F800004216068FFF7A4FF01220921A068FFF770
:102F90009FFF02221221E068FFF79AFF0123A3613D
:102FA00013BDC04650420000C12E0000F8B51E4BB4
:102FB00007001E68B369002B02D13000FFF7C2FF83
:102FC0004836B4687368013B04D53368002B07D0DA
:102FD0003668F6E70C22A55E002D0DD06834F2E7C6
:102FE00004213800FFF798FF30600028F0D10C234F
:102FF00004003B602000F8BD012320005B42E38118
:103000000233A38165662560A56065602561656101
:10301000A561082229005C30FFF7D6FC6563A56333
:10302000A564E564E6E7C04650420000F7B5040039
:103030000700002601914834002C01D13000FEBD6C
:103040006368A5680093009B013B009301D5246849
:10305000F2E7AB89012B08D90E22AB5E013304D015
:1030600029003800019B984706436835EBE70000CC
:1030700070B50E001D000E23C95E90B0140000292B
:1030800007DA00232B60B3891B0611D48023DB00F1
:103090000FE001AA00F0C0FD0028F2DBF022029B45
:1030A00012021340054A9B185A4253412B60EDE728
:1030B00040230020236010B070BDC04600E0FFFF39
:1030C000F7B502268B8905000C00334206D0230099
:1030D00047332360236101236361F7BD01AB6A4677
:1030E000FFF7C6FF00990700280000F081F80028CC
:1030F00008D10C22A35E9A05EFD4032293431E430A
:10310000A681E4E70F4BAB628023A28920601343C2
:10311000A381009B20616361019B002B0DD00E23D6
:10312000E15E280000F08AFD002806D00322A38972
:1031300093431A0001231343A381A0893843A0813C
:10314000CBE7C046C12E000010B5034B0100186844
:1031500000F04EF810BDC0465C00002070B50500C0
:10316000002910D00C1F2368002B00DAE418280077
:1031700000F0B0FD1D4A1368002B05D16360146098
:10318000280000F0A8FD70BDA34209D9216860188D
:103190008342F3D118685B6841182160EEE71300A1
:1031A0005A68002A01D0A242F9D919685818A042D9
:1031B0000BD120680918581819608242E0D11068B4
:1031C0005268411819605A60DAE7A04202D90C230C
:1031D0002B60D5E721686018824203D110685268DD
:1031E0004118216062605C60CAE7C0464C01002063
:1031F000032370B5CD1C9D43083506000C2D1ED24F
:103200000C25A9421DD8300000F064FD254A146841
:103210002100002919D1244C2368002B03D1300050
:1032200000F076FC20602900300000F071FC431CA7
:103230002CD10C233000336000F04DFD03E0002D55
:10324000DFDA0C233360002070BD0B685B1B1AD4DF
:103250000B2B03D90B60CC18256003E08C420ED1F8
:1032600063681360300000F036FD200007220B3049
:10327000231D9043C31AE7D05A42E250E4E74B685B
:1032800063600C00EEE70C004968C2E70323C41C2E
:103290009C43A042E0D0211A300000F039FC431CCE
:1032A000DAD1C6E74C01002050010020F0B58E684D
:1032B00085B007000C00039201939E4239D89023F9
:1032C0008A89DB001A4234D00325096923685B1A16
:1032D0000293636902985D43EB0F5D19019B6D10CA
:1032E00001331B18AB4200D91D00530532D529000C
:1032F0003800FFF77DFF061E09D10C233B604023F9
:103300000120A28940421343A38105B0F0BD029A77
:10331000216900F0C4FCA389144A1A408023134396
:10332000A381029B2661F61826606561019EED1A55
:10333000A560019BB34200D21E00320003992068B1
:1033400000F0B6FCA36800209B1BA36023689E19B5
:103350002660DAE72A00380000F0BEFC061EE0D145
:1033600021693800FFF7FAFEC7E7C0467FFBFFFF81
:10337000F0B59FB0029005938B890F0016001B06D5
:1033800011D50B69002B0ED14021FFF731FF3860BA
:103390003861002805D10C23029A013813601FB050
:1033A000F0BD40237B61002306AD6B6120336B765B
:1033B0001033AB7634002378002B47D1A31B049342
:1033C0000DD0A31B320039000298FFF76FFF431C9A
:1033D00000D1B5E06A69049B944663446B6123782D
:1033E000002B00D1ACE00122002352426A6002A906
:1033F0005432521801342B60EB60AB601370AB6534
:10340000584E05222178300000F03EFC621C002856
:1034100020D12968CB0604D5532302AE20309B1956
:1034200018700B0704D553232B2002AE9B1918707C
:1034300023782A2B16D000200A21099B2278303AC3
:10344000092A55D9002815D0099313E0252BB5D0AA
:103450000134B0E70123801B8340296814000B432B
:103460002B60CDE7059B181D1B680590002B39DBF1
:103470000993140023782E2B0BD16378621C2A2B1E
:103480003ED1059B02341A1D1B680592002B34DBCC
:103490000793354E21780322300000F0F5FB002819
:1034A00006D04023801B83402A68013413432B60DD
:1034B000217806222D48661C297600F0E5FB0028BD
:1034C00046D02B4B002B2FD12968059B0722C9051D
:1034D00028D59B189343083305936B69039A9B186F
:1034E0006B6167E75B42EB6002230B432B60C0E735
:1034F0004B4301349B180120A0E701235B42C7E73F
:10350000002314000A201A006B6021783039092941
:1035100003D9002BBDD00792BBE7424301345218B8
:103520000123F2E70733D5E705AB00933A00114BCF
:103530002900029800E000BF0390039B0133CCD127
:10354000BB890B985B0600D429E70120404226E79F
:1035500005AB00933A00074B2900029800F0BEF932
:10356000EAE7C046B4420000BA420000BE42000092
:1035700000000000AD320000936810B5013B93607D
:10358000002B05DA9469A34208DBCBB20A2B05D0E5
:103590001368581C10601970C8B210BDFFF70EFBFD
:1035A000FBE7F8B506000F001400D518AC4201D1B6
:1035B000002007E021783A003000FFF7DDFF0134FA
:1035C000431CF3D1F8BD0000F0B59FB006000F001A
:1035D00014000593002804D08369002B01D1FFF764
:1035E000B1FC7F4B9F425CD17768BB891B0762D5DA
:1035F0003B69002B5FD0002306AD6B6120336B76F7
:103600001033AB760294029C2378002B5DD1029B91
:10361000E31A04930DD0049B029A39003000FFF79F
:10362000C0FF431C00D1CCE06A69049B944663440C
:103630006B612378002B00D1C3E0012200235242AA
:103640006A6002A95432521801342B60EB60AB60FF
:103650001370AB6521780522624800F015FB631CEE
:103660009C46002835D12968CB0604D5532302AAED
:1036700020309B1818700B0704D553232B2002AA67
:103680009B18187023782A2B2CD000200A21099B24
:103690002278303A092A00D86BE000282AD0099312
:1036A00028E0514B9F4201D1B7689EE74F4B9F42A4
:1036B0009BD1F76899E739003000FFF7D5FA002869
:1036C00099D0012040421FB0F0BD252B9FD001347E
:1036D0009AE7444B2968C01A012383400B432B60AF
:1036E0006446B7E7059B181D1B680590002B3ADB65
:1036F0000993644623782E2B0BD16378621C2A2B06
:103700003FD1059B02341A1D1B680592002B35DB47
:10371000079321780322364800F0B6FA002807D034
:10372000334B2A68C01A4023834013432B60013473
:103730002178631C06222F480293297600F0A4FA10
:10374000002844D02C4B002B2FD12968059B072241
:10375000C90528D59B189343083305936B69039AD1
:103760009B186B614FE75B42EB6002230B432B60BE
:10377000BFE74B4301349B18012089E701235B42DB
:10378000C6E7002314000A201A006B602178303944
:10379000092903D9002BBCD00792BAE74243013470
:1037A00052180123F2E70733D5E705AB00933A003F
:1037B000124B2900300000E000BF0390039B01334F
:1037C000CCD1BB895B0600D57BE70B987BE705ABCB
:1037D00000933A00094B2900300000F07FF8ECE735
:1037E00074420000B44200009442000054420000C1
:1037F000BA420000BE42000000000000A3350000F5
:10380000F7B5150001938A680B6900900C0093428C
:1038100000DA130022002B6043321278002A01D014
:1038200001332B6023689B0602D52B6802332B6083
:10383000062723681F4027D0230043331B785A1ED6
:1038400093412268920630D42200019943320098B5
:10385000089EB047431C25D0062320682A68E168EB
:1038600003400025042B03D18D1AEB43DB171D40C9
:10387000A3682269934201DD9B1AED180027BD421F
:1038800020D1002010E00137E3682A689B1A9F428C
:10389000D2DA22000123193201990098089EB0471C
:1038A000431CF0D101204042FEBD3020E1184331DD
:1038B000087021005A1C45310978A218433202339E
:1038C0001170C1E7220001231A3201990098089E65
:1038D000B047431CE6D00137D1E70000F0B58BB00C
:1038E00006920A0043320793059004920A7E0C0068
:1038F000109B6E2A00D18FE017D8632A2CD008D8ED
:10390000002A00D199E0582A54D02600423632705D
:1039100029E0642A01D0692AF7D121681A680806CB
:1039200023D5111D1960156825E0732A00D188E0A0
:1039300008D86F2A29D0702AE7D1202209680A43C3
:10394000226003E0752A20D0782ADED12200782177
:10395000453211706C4A30E00E001A684236111D73
:10396000196013683370012379E04906D9D5111D18
:1039700019600023D55E002D03DA2D23049A6D42D1
:103980001370624B0A2703932FE02068196805061D
:1039900003D5081D18600D6805E04006F9D50D68CF
:1039A000081D1860ADB2594B082703936F2A18D031
:1039B0000A2716E045310A70544A03921A682168B2
:1039C000101D18601568080622D5CB0702D52023E4
:1039D000194321601027002D03D1202322689A4328
:1039E00022602300002243331A706368A360002B17
:1039F0005CDB0422216891432160002D58D1049E94
:103A0000002B64D02600039B42361B7833705EE0A7
:103A10004806DAD5ADB2D8E709681A68080605D5B0
:103A2000111D1960136862691A6006E04906F7D52E
:103A3000111D19601368A28A1A800023049E236155
:103A400054E01A68111D1960166800216268300080
:103A500000F01AF9002801D0801B606063682361C0
:103A60000023049A137041E02369320006990598F7
:103A7000079DA847431C43D0236800259B070FD40C
:103A8000099BE06898423DDA18003BE022000123E0
:103A9000193206990598079EB047431C30D001356E
:103AA000E368099A9B1A9D42F0DBE9E7002DA9D053
:103AB000049E28003900FEF75DFF039B013E5B5C1E
:103AC000280033703900FEF7CFFE051EF1D1082F14
:103AD00009D12368DB0706D563682269934202DCBB
:103AE0003023013E3370049B9B1B2361079B09AA73
:103AF00000932100069B0598FFF782FE431CB3D17B
:103B0000012040420BB0F0BDD6420000C54200008B
:103B1000002370B5064C050008002360FDF728F966
:103B2000431C03D12368002B00D02B6070BDC0461E
:103B3000D402002070B50C000E25495F00F0F2F8A9
:103B4000002803DB636D1B18636570BDA389024AFF
:103B50001340A381F9E7C046FFEFFFFFF8B51F0050
:103B60008B8905000C001600DB0505D50E23C95E08
:103B70000022022300F074F8A389054A28001340AC
:103B8000A38132000E23E15E3B0000F01FF8F8BD78
:103B9000FFEFFFFF70B50C000E25495F00F060F8E5
:103BA000A389421C03D1054A1340A38170BD802222
:103BB00052011343A3816065F8E7C046FFEFFFFFA2
:103BC00010B50E23C95E00F015F810BD70B50500E4
:103BD000080011000022064C22601A00FDF7D6FCF6
:103BE000431C03D12368002B00D02B6070BDC0465E
:103BF000D4020020002370B5064C050008002360A5
:103C0000FDF7C8F8431C03D12368002B00D02B60BC
:103C100070BDC046D4020020002370B5064C0500DC
:103C2000080011002360FDF7B8F8431C03D1236896
:103C3000002B00D02B6070BDD4020020002370B593
:103C4000064C050008002360FDF7ACF8431C03D1C7
:103C50002368002B00D02B6070BDC046D40200202A
:103C600070B50500080011000022064C22601A0001
:103C7000FDF79AF8431C03D12368002B00D02B607A
:103C800070BDC046D4020020C9B28218904201D152
:103C90000020704703788B42FBD00130F6E7002309
:103CA00010B59A4200D110BDCC5CC4540133F8E782
:103CB00010B5884202D98B18984208D300239A4243
:103CC00007D0CC5CC4540133F9E78B5C8354013AD0
:103CD000FBD210BD70477047F8B507000D00160005
:103CE000002905D11100FFF783FA04002000F8BD78
:103CF000002A03D1FFF732FA3400F7E700F026F884
:103D00002C008642F2D931003800FFF771FA041E08
:103D1000ECD029003200FFF7C2FF29003800FFF77E
:103D20001DFAE3E770B50500080011000022064CFB
:103D300022601A00FDF716FC431C03D12368002BF8
:103D400000D02B6070BDC046D40200200B1F1B6842
:103D5000181F002B01DA0B58C01870472E2E2F6841
:103D6000616C2F7372632F68616C5F696F2E6300E3
:103D70002E2E2F68616C2F7372632F68616C5F74D5
:103D8000696D65722E6300002E2E2F68616C2F7393
:103D900072632F68616C5F75736172745F617379B0
:103DA0006E632E63000000002E2E2F68616C2F734F
:103DB00072632F68616C5F75736172745F73796E83
:103DC000632E63002E2E2F68616C2F7574696C73DF
:103DD0002F7372632F7574696C735F6C6973742EC3
:103DE000630000002E2E2F68616C2F7574696C7350
:103DF0002F7372632F7574696C735F72696E67627B
:103E000075666665722E63002E2E2F68706C2F7299
:103E100074632F68706C5F7274632E63000000001F
:103E2000000000000400104000000300098A0000A8
:103E3000000000000100000004001040000003002A
:103E40002EFF0000000000000400000004001040ED
:103E5000000003002EFF0000000000000000000032
:103E60000000000000000000000000000000000052
:103E70000000000000000000000000000000000042
:103E80000000000000000000000000000000000032
:103E900000000000000000002E2E2F68706C2F73B1
:103EA0006572636F6D2F68706C5F736572636F6DA1
:103EB0002E630000A21C00000C1C0000161C000059
:103EC000201C00002A1C0000A21C0000A21C0000F4
:103ED000341C00003E1C0000481C0000521C000066
:103EE000A21C0000A21C00005C1C0000661C00005C
:103EF000701C00007A1C0000A21C0000A21C000024
:103F0000841C0000A21C0000A21C0000A21C0000D7
:103F1000A21C0000A21C0000A21C0000A21C0000A9
:103F2000A21C0000A21C0000A21C0000A21C000099
:103F3000A21C0000A21C0000A21C0000A21C000089
:103F4000A21C0000A21C0000A21C0000A21C000079
:103F5000A21C0000A21C0000A21C0000A21C000069
:103F6000A21C0000A21C0000A21C0000A21C000059
:103F7000A21C0000A21C0000A21C0000A21C000049
:103F8000A21C0000A21C0000A21C0000A21C000039
:103F9000A21C0000A21C0000A21C0000A21C000029
:103FA000A21C0000A21C0000A21C0000A21C000019
:103FB000A21C0000A21C0000A21C0000A21C000009
:103FC000A21C0000A21C0000A21C0000A21C0000F9
:103FD000A21C0000A21C0000A21C0000A21C0000E9
:103FE000A21C0000A21C0000A21C0000A21C0000D9
:103FF000A21C0000A21C0000A21C0000A21C0000C9
:10400000A21C0000A21C0000A21C0000A21C0000B8
:10401000A21C0000A21C0000A21C0000A21C0000A8
:10402000A21C0000A21C0000A21C0000A21C000098
:10403000A21C0000A21C0000A21C0000A21C000088
:10404000A21C0000A21C00008E1C0000A21C00008C
:10405000981C00000101020103010401070208028B
:1040600009020A020D010E040F0410011303650278
:10407000670400004F4E0000772E257300000000FB
:10408000772E646174652E256400000074656D7080
:10409000000000006461793A25642074656D702029
:1040A00076616C75652069733A25640D0A0000001D
:1040B00068756D6964697479000000006461793A1B
:1040C00025642068756D69646974792076616C7502
:1040D000652069733A25640D0A000000706D323561
:1040E000000000006461793A256420706D3235204B
:1040F00076616C75652069733A25640D0A000000CD
:10410000636F6E646974696F6E0000006461793A70
:10411000256420636F6E646974696F6E2076616CCC
:1041200075652069733A25730D0A00008821000027
:1041300090210000962100009C210000CC2100006D
:10414000D4210000DC2100008C2100001C22000092
:104150008C2100008C2100008C2100008C210000AB
:104160008C210000222200008C2100008C21000004
:104170008C2100008C2100008C2100008C2100008B
:104180008C2100008C2100008C2100008C2100007B
:104190008C2100008C2100008C2100008C2100006B
:1041A0008C2100008C2100008C21000036220000B0
:1041B0004A2200008C2100008C2100008C2100008C
:1041C0008C2100008C2100008C2100008C2100003B
:1041D0008C2100008C2100006E2200008C21000048
:1041E000622200007B2270223A220000666E656E19
:1041F0006C7A61306A646674707A6533000000001E
:10420000222C2276223A2200312E302E300000005D
:10421000222C226D223A0000320000007D000000B6
:1042200007001300350090003F1C0B05030102033B
:1042300004050607202122232425262728290809EA
:104240000A0B10111213141516172C2D2E2F000007
:1042500060000020000000000000000000000000DE
:10426000000000000000000000000000000000004E
:10427000000000000000000000000000000000003E
:10428000000000000000000000000000000000002E
:10429000000000000000000000000000000000001E
:1042A000000000000000000000000000000000000E
:1042B00000000000232D302B2000686C4C00656648
:1042C0006745464700303132333435363738394167
:1042D000424344454600303132333435363738397D
:1042E0006162636465660000F8B5C046F8BC08BC4E
:1042F0009E467047DD000000F8B5C046F8BC08BC1B
:084300009E467047B500000065
:104308004000002030000020240200201C02002071
:1043180024000020340200201C0000201401001496
:10432800010000000200040005001405140100004B
:10433800000001000000040000000200000004006A
:1043480002008030000200008C400000B0400000F5
:1043580000410000DC400000010000006000002077
:104368000000000074420000944200005442000023
:104378000000000000000000000000000000000035
:104388000000000000000000000000000000000025
:104398000000000000000000000000000000000015
:1043A8000000000000000000000000000000000005
:1043B80000000000000000000000000000000000F5
:00000001FF
