S0160000576F726B696E6750726F6A6563742E7372656356
S113000048220020350100003101000031010000C8
S113001000000000000000000000000000000000DC
S1130020000000000000000000000000310100009A
S11300300000000000000000310100003101000058
S11300403101000031010000310100008D0F00007A
S113005031010000310100003101000031010000D4
S113006031010000211300003101000031010000C2
S1130070310100003513000031010000310100009E
S113008031010000310100003101000031010000A4
S113009031010000000000000000000031010000F8
S11300A03101000031010000C515000031010000DC
S11300B00000000010B5064C2378002B07D1054B37
S11300C0002B02D0044800E000BF0123237010BDC0
S11300D0AC0000200000000028260000084B10B5EA
S11300E0002B03D00749084800E000BF0748036815
S11300F0002B00D110BD064B002BFBD09847F9E72D
S113010000000000B000002028260000282600007F
S11301100000000010B5034B9847034B9847034B6E
S1130120984710BD390400009D160000A915000071
S1130130FEE70000F8B5234A234B9A4209D0224B2C
S1130140204A03E011681960043304321F498B42CA
S1130150F8D31F4B02E000221A6004331D4A934275
S1130160F9D31D4AFF211D4B8B439360FD39902326
S11301705B001B4AD1501B4AD3780325AB430224AE
S11301802343D370D3780C27BB4308263343D3705F
S1130190154B987B30229043202210439873997B0F
S11301A0B943314399739A7BAA4322439A730F4A02
S11301B0516880230B4353600D4B98470D4B984770
S11301C0FEE7C0462826000000000020AC00002006
S11301D0AC0000204402002000ED00E0000000001C
S11301E000700041005000410048004100400041BF
S11301F0091C00007D140000044A116A80231B03BB
S11302000B431362024A034B5A80704700040040B8
S113021022420000000C004010B5084A93692021D6
S11302200B439361064A074B5A80074B98470200D9
S113023006490748074B984710BDC04600040040D4
S113024004410000000C0040890F0000001400402D
S113025098010020F1050000044A136A04210B43AD
S11302601362034A034B5A807047C046000400409F
S113027014420000000C004030B50F4B4822995C3A
S11302800125A94301242143C9B299543420195C9E
S1130290393A914302221143C9B2195449215A5C93
S11302A0AA432243D2B25A541A5C3A390A40202152
S11302B00A43D2B21A5430BD0044004110B582B092
S11302C0064B9847002300931033054A0549064816
S11302D0064CA047064B984702B010BD59020000D7
S11302E0C800002000080042B401002035090000C5
S11302F07902000030B50F4B4022995C0125A943D7
S113030001242143C9B299543020195C313A9143F4
S113031003221143C9B2195441215A5CAA4322430E
S1130320D2B25A541A5C32390A4030210A43D2B24A
S11303301A5430BD00440041044A136A08210B4397
S11303401362034A034B5A807047C04600040040BE
S113035015400000000C004010B5054B98470022E2
S113036004490548054B9847054B984710BDC046BE
S113037039030000000C00428C010020850B0000B2
S1130380F5020000044A136A40210B431362034A36
S1130390034B5A807047C0460004004018400000D8
S11303A0000C004030B50F4BC822995C0125A943CD
S11303B001242143C9B29954B420195CB93A914338
S11303C003221143C9B21954C9215A5CAA432243D6
S11303D0D2B25A541A5CBA390A4030210A43D2B212
S11303E01A5430BD0044004110B582B0074B984701
S11303F0002300931033064A103206490648074C7E
S1130400A047074B984702B010BDC04685030000C3
S1130410C8000020001800423C01002035090000FB
S1130420A503000010B50248024B984710BDC04612
S113043010E000E09104000010B5074B9847074B0B
S11304409847074B9847074B9847074B9847074BE4
S11304509847074B984710BDD50D0000BD0200001A
S113046059030000E90300002504000019020000FC
S1130470F9010000EFF31083036072B6BFF35F8FDE
S11304807047BFF35F8F036883F3108870470000E1
S113049010B5024B1860024B984710BDE8000020CD
S11304A03114000010B5044B1C68044B984701003C
S11304B02000034B984710BDE8000020C90D000040
S11304C03D14000070B504000D00160000280ED085
S11304D000290AD0012034220649074B9847236893
S11304E0320029002000984770BD0020F3E7002067
S11304F0F1E7C0461C240000FD0B000070B50400A9
S11305000D00160000280ED000290AD001203D223B
S11305100649074B98476368320029002000984732
S113052070BD0020F3E70020F1E7C0461C24000062
S1130530FD0B0000F8B50668002E02D0330000253C
S11305400CE0104B984718E09F68BC466444A41A1A
S113055001348F68BC420BD21D001B68002B07D0EE
S11305605C689442F0D8A41A9F68BC466444F0E7DF
S1130570B34203D02800044B9847F8BD014B984779
S1130580FBE7C0461D0C0000490C0000F8B505004F
S1130590446903695E1C0661037EDB0702D4037EA3
S11305A09B070AD52B7E02221343DBB22B76F8BDC0
S11305B06F69E368200098473C00002CF7D063681B
S11305C0F31AA2689342F2D32F0014373800064B73
S11305D09847237C012BEBD1666032002100380060
S11305E0024B9847E4E7C046510C00003505000073
S11305F070B504000D00002812D000290ED001208F
S11306003B220849084B984729002000074B98478C
S113061000232361064B2360002070BD0020EFE718
S11306200020EDE730240000FD0B0000C10E0000A7
S11306308D05000010B50400431E9841C0B253223A
S11306400749084B98472000074B9847002804D1D6
S11306502000064B9847002010BD11204042FBE7C4
S113066030240000FD0B0000750F00001D0F00007A
S113067070B582B004000D00002826D0002922D0D5
S113068001207A221F49204B9847237E01221343DD
S1130690DBB2237626001436290030001B4B984722
S11306A0002814D123696B60226929003000184B9B
S11306B09847237E012293432376237E9B0712D4FB
S11306C0002002B070BD0020DBE70020D9E7237EC4
S11306D00122934323767E320A4900200A4B98472D
S11306E012204042EDE701A80A4B9847237E0222DC
S11306F0934323762000084B984701A8074B98475B
S11307000020DEE730240000FD0B0000050C000093
S11307103505000075040000870F00008304000005
S113072070B582B004000D00002823D000291FD02A
S1130730012095221D491E4B9847237E0122134315
S1130740DBB223762600143629003000194B984773
S1130750002811D029003000174B9847237E01222E
S113076093432376237E9B0711D4002002B070BDEF
S11307700020DEE70020DCE7237E0122934323767A
S113078099320A490A4B98470A204042EEE701A8E9
S11307900A4B9847237E0222934323762000084B7A
S11307A0984701A8074B98470020DFE73024000052
S11307B0FD0B0000050C0000630C00007504000034
S11307C0870F00008304000010B50838002303637A
S11307D0436A002B00D0984710BD10B50838002399
S11307E00363C36A002B00D0984710BD10B5040002
S11307F02C30044B9847236A083C002B01D020007E
S1130800984710BD2D0D000070B504000E001500B2
S113081000281DD000291DD0002A1DD100203C2213
S1130820FF321049104B98474423E25A0833E35AE5
S11308309A4213D1A6644C23E5520022083BE252AB
S1130840433B236320000830084B9847280070BDC1
S11308500020E4E70020E2E70120E0E71C2040421A
S1130860F5E7C04648240000FD0B00009712000085
S113087070B504000200083A4423D35A4C21525A5A
S113088093420DD00200016C083A5D1C44201552BD
S1130890C95C2000044B98472000044B984770BD66
S11308A0034B9847FBE7C04665120000971200000F
S11308B09F120000F0B585B004000D00160000285A
S11308C017D0002917D0002A17D10020AC225200DB
S11308D01249134B984703A8124B9847343420000D
S11308E00194114B9847070003A8104B9847002424
S11308F00BE00020EAE70020E8E70120E6E7013406
S1130900A4B2691801980A4B98472100A74201D95B
S1130910B442F4D3200005B0F0BDC0464824000022
S1130920FD0B0000750400006D0D00008304000041
S1130930E10C0000F8B504000D0016001F000028AB
S113094026D0002926D0002A26D0002B26D100202C
S11309503A221549154B9847200034303A003100AB
S1130960134B984700281BD1200008302900114B55
S1130970984700280BD1104B6360104B2360104B39
S1130980A360104BE360104B2361104B6361F8BD0F
S11309900020DDE70020DBE70020D9E70120D7E7CE
S11309A00D204042F3E7C04648240000FD0B000040
S11309B0950C0000AD110000B50800000908000006
S11309C071080000ED070000C9070000DB07000004
S11309D010B50400431E9841C0B261220449054B7E
S11309E0984720000830044B9847002010BDC046AB
S11309F048240000FD0B00004B12000070B50400F9
S1130A000D0000280BD0002907D0012077220549CA
S1130A10054B98472C60002070BD0020F6E70020AD
S1130A20F4E7C04648240000FD0B000070B5050043
S1130A300E001400431E9841C0B283221649174B7E
S1130A409847012E11D0002E04D0022E18D00D206C
S1130A50404209E0AC62621E9441E2B228000830D0
S1130A6001210F4B9847002070BD6C62621E9441B7
S1130A70E2B2280008300221094B98470020F3E72E
S1130A80EC62621E9441E2B2280008300321044B58
S1130A9098470020E8E7C04648240000FD0B00000A
S1130AA0A9120000F8B505000E001700002823D095
S1130AB0002923D0002A23D10020F1221149124B0E
S1130AC098472C0008342000104B98470028F8D091
S1130AD00025715D20000E4B984720000B4B984772
S1130AE00028FAD00135BD42F3D32000094B9847C2
S1130AF00028FAD02800F8BD0020DEE70020DCE75B
S1130B000120DAE768240000FD0B000075120000E4
S1130B105D1200007F120000F8B5CE46474680B54E
S1130B20051E884691461FD000291FD0002A1FD1D8
S1130B300020862252000F490F4B984700262C00B4
S1130B40083420000D4B98470028F8D043469F19DD
S1130B5020000B4B9847387001364E45EFD33000D8
S1130B600CBC90469946F8BD0020E2E70020E0E77F
S1130B700120DEE768240000FD0B00008B1200005A
S1130B806D12000070B504000D00002814D0002977
S1130B9010D0012034220949094B9847200008301D
S1130BA02900084B9847002803D1074B6360074B83
S1130BB0236070BD0020EDE70020EBE7682400000F
S1130BC0FD0B000081110000190B0000A50A0000B4
S1130BD010B50400431E9841C0B253220449054B8A
S1130BE0984720000830044B9847002010BDC046A9
S1130BF068240000FD0B000039120000002800D119
S1130C0000BE70470368002B03D08B4203D01B68DF
S1130C10F9E7002070470120FCE7000070B50400EC
S1130C200D00064B984701235840C0B239220449AD
S1130C30044B984723682B60256070BD050C0000A9
S1130C4084240000FD0B000003680B600160704702
S1130C500368002B03D01A68026018007047002054
S1130C60FCE7002912D00368994204D11B68036091
S1130C7001200AE01300002B02D01A689142F9D136
S1130C80002B05D00A681A60012070470020FCE799
S1130C900020FAE770B504000E001500002812D0F9
S1130CA0002912D0002A12D1002028220A490B4B15
S1130CB098476B1E2B420CD163600023A360E36052
S1130CC02660002070BD0020EFE70020EDE7012042
S1130CD0EBE70D204042F5E7A4240000FD0B0000E3
S1130CE070B504000D00002816D0002912D0012090
S1130CF040220C490C4B9847A368E2689A420DD0F5
S1130D00626813402268D35C2B70A3680133A3602C
S1130D10002070BD0020EBE70020E9E70A204042F4
S1130D20F7E7C046A4240000FD0B000070B50400E2
S1130D300D00431E9841C0B251220A490A4B9847FC
S1130D406368E26813402268D554E368A2689A1A7B
S1130D5061688A4201D9591AA1600133E360002015
S1130D6070BDC046A4240000FD0B000010B50400B3
S1130D70431E9841C0B267220349044B9847E06878
S1130D80A368C01A10BDC046A4240000FD0B0000D7
S1130D900300064A1268002A04D0044A1068C318E3
S1130DA0136070470249014A1160F6E7EC00002025
S1130DB04822002001204042704780239B014B6061
S1130DC0002070470020704703011B1A5A01642059
S1130DD05043704710B5084A536806210B435360CB
S1130DE0064B9847064B98470820064CA047064BED
S1130DF09847F720A04710BD00400041850E000031
S1130E00491300000D0E000095130000C30709D517
S1130E10164B802252009A60154A5A60134B5B7835
S1130E20DB09FBD1830709D5104B0222FF329A60FC
S1130E30104A5A600D4B5B78DB09FBD1430709D597
S1130E400A4B812252009A600B4A5A60074B5B7826
S1130E50DB09FBD1030708D5044B084A9A60084A0A
S1130E605A60024B5B78DB09FBD17047000C0040F1
S1130E70000701000103210002062100037D000098
S1130E8003060100064B1A7AD2B21A725A7AD2B207
S1130E905A729A7AD2B29A72DA7AD2B2DA72704703
S1130EA00004004010B50400C3681B7ADB0706D5B4
S1130EB00368002B00D09847E36801221A7210BD22
S1130EC070B504000D00431E9841C0B2332210498E
S1130ED0104B9847E56001232B80AB7ADB09FCD1EA
S1130EE0E268937ADB09FCD180331380937ADB09BF
S1130EF0FCD1E268936920239361937ADB09FCD1E6
S1130F000133E268D371044B1C60002070BDC046FD
S1130F10C8240000FD0B0000F000002010B5041EE2
S1130F2020D0C368002B1BD001206A220E490F4B2E
S1130F30984708220E4B1A60E26813690023136174
S1130F40937ADB09FCD1E268937ADB09FCD113883C
S1130F5002210B439BB21380937ADB09FCD110BDB1
S1130F600020E2E70020E0E7C8240000FD0B0000B9
S1130F7000E100E0C268937ADB09FCD113885B08C6
S1130F8001201840704770470020704710B5024B8D
S1130F901868024B984710BDF0000020A50E000011
S1130FA0024B9C466044800AC0B2704700F8FFBD03
S1130FB010B58469237EDB0702D5A37DDB070FD43C
S1130FC0237E9B0702D5A37D9B070ED4237E5B075C
S1130FD015D5628B37231A420CD00833638310BDB6
S1130FE00123237503689847F9E70223237583686F
S1130FF09847F4E74368218DC9B29847EFE7237E09
S1131000DB09ECD080232376C3689847638B9BB2BB
S11310106383E4E7064B984203D0064B984203D01F
S11310207047054B1960F8E7034B5960F8E7C04671
S11310300008004200180042F400002010B5024BE2
S113104098470930C0B210BDA10F000010B50C4B79
S1131050984701000020022809D883001B189A0031
S1131060084BD35C994209D00130C0B2F3E798220F
S1131070920005490020054B9847002010BDC0464A
S1131080A10F0000E024000058250000FD0B000023
S113109070B50400384B9847E369DB071DD483001F
S11310A01B189A00354B9B185A681C231A40E36995
S11310B09B07FCD123689B0709D5236802218B4336
S11310C02360E3699B07FCD1E3699B07FCD40123FC
S11310D013432360E3699B07FCD1E369DB07FCD47A
S11310E083001B189A00254B9B185B682360E369F7
S11310F09B07FCD183001B189A00204B9B189B680C
S11311006360E3695B07FCD183001B189A001B4BE7
S11311109B185B689A040BD4C022D201134207D1F6
S113112083001B189A00154B9B189B89A38115E01B
S113113083001B189A00114989188A89A389D2044B
S1131140D20C5B0B5B031343A3818B7B07221A40F6
S1131150A3895203DB04DB0C1343A381074A8300F6
S11311601D18A9000D005118C97BA1735219127CD6
S11311703023E254002070BD4D100000E024000034
S113118070B505000C00431E9841C0B2B822044952
S1131190044B98472C602000034B984770BDC04611
S11311A058250000FD0B00009110000070B50600EA
S11311B00C00431E9841C0B2C6221949194B9847E6
S11311C02000194B9847051E01D0280070BDB4615A
S11311D031002000154B98472000154B984743B227
S11311E0002B0ADB1F21014001228A408021114C7F
S11311F06250BFF34F8FBFF36F8F002B07DB1F21AC
S1131200014001228A40C02149000A4C6250002B4F
S1131210DBDB1F2318401E3B8340064A1360D4E7E0
S113122058250000FD0B000091100000151000006F
S11312303D10000000E100E00268136802210B4346
S11312401360D3699B07FCD170478269136802213C
S11312500B431360D3699B07FCD17047036889B2C1
S113126019857047836989B2198570470368188D99
S1131270C0B270470368187E0123184070470368A2
S11312801B7E5B0801201840704703681B7E9B0887
S1131290012018407047836901229A757047836959
S11312A002229A757047000070B504000D00160004
S11312B0431E9841C0B2882292001749174B9847A1
S11312C0002D0BD0022D09D0012D18D0032D0FD1E4
S11312D0A369002E1CD080229A7509E0A369002E10
S11312E007D101221A75A369002E05D102221A75AD
S11312F070BD01229A75F6E702229A75F8E7A36990
S1131300002E02D104221A75F2E704229A75EFE73F
S113131080221A75ECE7C04658250000FD0B00003A
S113132010B5024B1868024B984710BDF40000201A
S1131330B10F000010B5024B5868024B984710BD1E
S1131340F4000020B10F0000104B196A090C1A6A4E
S1131350920F920709040E4801400A43A121490053
S11313600A431A629A694139FF390A439A611A7F1A
S11313701D310A401A77054BDB681B07FBD5034A6E
S1131380136A80210B4313627047C0460008004073
S11313900000FF0F8622D2011C4B5A8002221C4BF4
S11313A09A841B4BDB68DB06FBD51A4A184BDA62BE
S11313B0194B1B689B0E3F2B20D09B02802292006E
S11313C01343134A936206239384938C5B0718D5C3
S11313D00F4BDA68D0231340D02BF9D10C4A938CED
S11313E080210B439BB29384084B5B78DB09FBD1D0
S11313F0074A936902218B4393617047FC23DB0105
S1131400DFE7034BDB68DB06FBD5E7E7000C0040B6
S113141000080040DC050A2824608000024B034ACF
S11314205A6005221A60704710E000E0FFFFFF00D9
S113143010B5014B984710BD1D140000080E0BE0B9
S11314400B4B0C4858609860094B1B68DB03FBD5B9
S1131450094B9C4661441000421ED2B20028EFD1D1
S1131460034B59609960024B1B68DB03FBD5704743
S113147010E000E0FFFFFF00010000FF10B5074B84
S11314809847074B98476120064CA0470A20A0477D
S1131490FA208000044B9847F5E7C0461501000088
S11314A0BD160000F5160000A504000010B50248A2
S11314B0024B984710BDC046B4010020D10900007A
S11314C070B51348134B98471348144B984700249E
S11314D00AE00F4D21002800114B984721002800F5
S11314E0104B98470134A4B2012CF2D900240BE02C
S11314F063001B195A000C4BD218E1B204480C309B
S11315000A4B98470134A4B2012CF1D9002070BDD4
S1131510000000208919000018020020B51A0000FC
S1131520C91A0000E91A00000C0200204917000043
S113153010B50122024B9A701420024B984710BD3B
S1131540FC0000203917000010B5014B984710BD6E
S11315503115000070B50E4B1B79002B11D10C4CCA
S1131560142323610B4B6361012626762100083185
S1131570094D2800094B984726712800084B9847C5
S113158070BD034908310448064B9847E7E7C04655
S1131590FC0000204915000098010020710600009D
S11315A0350600002107000010B5034B9847034B94
S11315B09847034B984710BD55150000C11400000F
S11315C0AD14000010B5024B9847024B984710BD6C
S11315D0391B00005D1B000010B50B00002809D169
S11315E011001800054B9847002800DB10BD0120AE
S11315F04042FBE701204042F8E7C0465516000090
S113160010B50B000138022809D811001800054B49
S11316109847002800DB10BD01204042FBE7012071
S11316204042F8E77916000070B50600064D2B68B5
S113163098680021054CA0472B6858680021A047F2
S1131640034B1E6070BDC04648000020611C0000B2
S11316501801002010B50400054B1868002804D0B8
S11316608AB22100034B984710BD0020FCE7C04616
S113167018010020FD04000010B50400054B186893
S1131680002804D08AB22100034B984710BD0020E3
S1131690FCE7C04618010020C504000010B5044C46
S11316A02000044B98472000034B984710BDC046C8
S11316B08C010020D10B00002916000010B582B067
S11316C0074C084A00212000074B984701A9200035
S11316D0064B98472000064B984702B010BDC04601
S11316E03C010020111700002D0A0000FD09000034
S11316F0D109000000B583B001A908700122024895
S1131700024B984703B000BD3C010020C504000013
S113171010B582B06B46DC1D012221000348044B46
S113172098472078034B984702B010BD3C01002035
S1131730FD040000F5160000024A1388C01810804A
S11317407047C0461C01002010B50B2300280BD0A5
S1131750002A09D001330C005C4381680B3B0B5514
S11317608368191900234A60180010BC02BC08479A
S11317707F21044A53788B43DBB2002B01D053788A
S1131780F9E77047004C0042F0B5062401250C49E6
S11317900C4A096813880868008883420BD2260023
S11317A05E438F68F65D2E4202D101339BB2F4E7AB
S11317B01380002002E0002301201380F0BDC04606
S11317C03802002020010020F0B5664C87B00700E5
S11317D0A0470221644B654D1A7826008A431A708B
S11317E0FA0003922A68F90052681C005218927891
S11317F05F4B510701D419691DE0110705D48020FE
S113180019695C4A4001114006E0D10609D48020E0
S11318101969584A800111400143196159690A4004
S113182007E01969920606D4C020800101431961BA
S11318305A69024304E04F4A1140196159690A4048
S11318405A61B0472B68FA005B689B185B88238257
S1131850B0472B68FA005B689B5A6382B047062343
S11318602A685F439368DB199B8823839368DB1999
S11318701978890701D5052119709368DF5DB04790
S1131880FF067F0F3F23002F08D12B68039A5B6864
S11318909B185B79384A1B09D3181B7AA376B04787
S11318A02B68039A5B68304F9B181B791B09E376FE
S11318B0B04703212B68039A5B689B181A79237934
S11318C00A408B4313432371B04707212B68022539
S11318D0039A5B689B189A79637B0A408B43134392
S11318E06373B04723782B432370244B5B680393C3
S11318F0002B2ED00124B0473B7B1B071B0F049306
S1131900B0473B799B079B0F0593B0473B78AB43AC
S11319103B70B0477B791C43B04708212C43184BDC
S1131920E4B27C711A6813780B431370B0477C7B64
S1131930B04707227B7BE4B293437B73059A114B38
S1131940009404990020039CA047B0473B781D43B2
S11319503D70B04780227B7B524213437B7307B0B8
S1131960F0BDC04671170000004C00423802002050
S113197000440042FFCFFFFF742500002001002037
S1131980340200200D4C0042F7B580243F49404BFF
S11319900A69E4001A4022430A614A690B2613408B
S11319A023434B6100286ED00368198800230093F9
S11319B001939AB291420CD94468DA00A2181488AF
S11319C0019D0133254301955288009C14430094E2
S11319D0EFE7009B0226002B55D0019B009A1B04C5
S11319E01A439446002001210F242A4F0E376346E0
S11319F0C3400B4225D0C35D1F2B0ED8264D5A0879
S1131A00521915780B4203D010262540354301E0C6
S1131A10A5430D431570214A0FE0203B204DDBB256
S1131A205A08521915780B4203D010262540354325
S1131A3001E0A5430D4315701A4A9B181A780A430E
S1131A401A7001302028D2D1174DA8470023174C13
S1131A50174F23703E7A002E0AD1A8476B469B8805
S1131A60E382A8476B461B88A38201233B720AE0EA
S1131A700026A847E38A019A1A43E282A847A38A68
S1131A80009A1A43A2823000FEBDC04600440042C0
S1131A90FFF8FFFF7425000030440041404400413A
S1131AA0B0440041C044004171170000004C0042A2
S1131AB0200100200B23002802D0024B18600023D1
S1131AC0180070473C0200200B2300280AD003684A
S1131AD01A8802238A4205D3043359438268053B9A
S1131AE08B54002318007047020010B50B20002A05
S1131AF01FD0136809381C888C421AD39B789268CB
S1131B00402B05D18D203A3B4B438000D31807E08E
S1131B10803BDBB2012B05D806234B430548D31881
S1131B209880002006235943511802220B7813434E
S1131B300B7010BD670500000220074B9A7AD2B2E1
S1131B40024202D0997A0143997201210A4202D0D9
S1131B509A7A0A439A727047004C004270B5214B3E
S1131B6098470222204C2378934323701F4B9847B5
S1131B70A18BA08B1E4C1F4A238812685B00D05295
S1131B801D4B89B21B782500012B02D0022B0FD0EC
S1131B9027E0238801332380184B9847002805D178
S1131BA0174B20889847042323721AE0E36817E050
S1131BB0144B1E6823887268DC0014190F226079A4
S1131BC01040A2790024904201D2121AD4B2062203
S1131BD0E1405343B068C318598002232B722B6928
S1131BE0984770BD71170000004C0042391B00007B
S1131BF0200100203C02002046000020891700003C
S1131C00C91700003802002070B500260C4D0D4C99
S1131C10641BA410A64209D1002600F0F5FC0A4D6D
S1131C200A4C641BA410A64205D170BDB300EB5846
S1131C3098470136EEE7B300EB5898470136F2E7D0
S1131C4014260000142600001426000018260000A4
S1131C5003008218934200D1704719700133F9E7E9
S1131C604A424A41802310B55200DB0000F002F8DA
S1131C7010BD0000F0B51D004F4B85B01E68040078
S1131C800F000092002E05D0B369002B02D1300062
S1131C9000F094F9494B9C4250D17468009B022B8C
S1131CA005D0012B00D984E0002D00DA81E0210069
S1131CB0300000F015F9616B002908D0230044338B
S1131CC0994202D0300000F041FA002363630023FC
S1131CD0A3616360A3891B0603D52169300000F06A
S1131CE035FAA389364A1340A381009B022B5AD0AC
S1131CF003AB02AA2100300000F0F6F9A3891843CF
S1131D00A081002D24D1029D280000F015FA019530
S1131D10071E42D1029B0193AB4239D101204042BC
S1131D200223A2891343A3810023A3602300473322
S1131D30236023610123636105B0F0BD214B9C4204
S1131D4001D1B468AAE7204B9C42A7D1F468A5E767
S1131D50002FD9D0B369002B02D1300000F02EF946
S1131D60009B012B03D1A389009A1A43A281082066
S1131D70A389276027616561184018D001201840A5
S1131D800023984211D06D42A360A5611800D3E7E7
S1131D90019800F0D1F9071EC0D08023A289019DCB
S1131DA01343A381D6E70020BAE7A560C4E7A06087
S1131DB0C2E701204042BFE748000020C8250000D8
S1131DC05CF3FFFFE8250000A8250000F7B58A8929
S1131DD005000C00130760D44B68002B04DC0B6C6B
S1131DE0002B01DC0020FEBDE76A002FFAD000239F
S1131DF02E682B6080235B011A4034D0606DA38968
S1131E005B0706D56368C01A636B002B01D0236C93
S1131E10C01A0200216A00232800E76AB847A18992
S1131E20431C06D12B681D2B31D82C4ADA40D3072A
S1131E302DD50023636023692360CB0405D5431C9F
S1131E4002D12B68002B00D16065616B2E600029E4
S1131E50C8D023004433994202D0280000F076F918
S1131E6000206063BFE70123216A2800B847431CB0
S1131E70C5D12B68002BC2D01D2B01D0162B01D14C
S1131E802E60AFE74023A2891343A381ABE740232D
S1131E900B430120A3814042A5E70F69002FA1D085
S1131EA00B680F60DB1B01930023920700D14B6981
S1131EB0A360019B002B00DC94E7019B3A00216A9C
S1131EC02800A66AB047002803DC4023A2891343F4
S1131ED0DFE7019B3F181B1A0193EAE7010040204A
S1131EE00B6970B505000C00002B01D1002070BDFA
S1131EF0002804D08369002B01D100F05FF80B4B5C
S1131F009C4209D16C680C22A35E002BEED0210008
S1131F102800FFF75BFFEAE7054B9C4201D1AC6860
S1131F20F1E7044B9C42EED1EC68ECE7C8250000D5
S1131F30E8250000A825000010B5024900F0B2F819
S1131F4010BDC046E11E0000002310B5040003606C
S1131F504360836081814366C2810361436183611D
S1131F60190008225C30FFF773FE054B246263629C
S1131F70044BA362044BE362044B236310BDC046CD
S1131F80C1220000E9220000212300004D230000AB
S1131F9070B568254A1E55430E002900743100F0BF
S1131FA01FF9041E08D000212A00016046600C308D
S1131FB0A0606832FFF74CFE200070BD836913B542
S1131FC00400002B28D18364C3640365134B144AB3
S1131FD01B6882620193984201D10123836120002E
S1131FE000F020F86060200000F01CF8A0602000E1
S1131FF000F018F80022E06004216068FFF7A4FFF5
S113200001220921A068FFF79FFF02221221E06844
S1132010FFF79AFF0123A36113BDC046A425000066
S1132020391F0000F8B51E4B07001E68B369002B6A
S113203002D13000FFF7C2FF4836B4687368013B31
S113204004D53368002B07D03668F6E70C22A55E6A
S1132050002D0DD06834F2E704213800FFF798FF13
S113206030600028F0D10C2304003B602000F8BD50
S1132070012320005B42E3810233A381656625606E
S1132080A560656025616561A561082229005C3051
S1132090FFF7DEFD6563A563A564E564E6E7C04676
S11320A0A4250000F7B50400070000260191483478
S11320B0002C01D13000FEBD6368A5680093009B2D
S11320C0013B009301D52468F2E7AB89012B08D9C1
S11320D00E22AB5E013304D029003800019B9847DF
S11320E006436835EBE7000070B50E001D000E23B3
S11320F0C95E90B01400002907DA00232B60B3896D
S11321001B0611D48023DB000FE001AA00F04AF97A
S11321100028F2DBF022029B12021340054A9B18AE
S11321205A4253412B60EDE740230020236010B056
S113213070BDC04600E0FFFF10B5034B01001868F6
S113214000F04EF810BDC0464800002070B50500F0
S1132150002910D00C1F2368002B00DAE418280093
S113216000F046F91D4A1368002B05D16360146022
S1132170280000F03EF970BDA34209D92168601817
S11321808342F3D118685B6841182160EEE71300BD
S11321905A68002A01D0A242F9D919685818A042F5
S11321A00BD120680918581819608242E0D11068D0
S11321B05268411819605A60DAE7A04202D90C2328
S11321C02B60D5E721686018824203D110685268F9
S11321D04118216062605C60CAE7C0463401002097
S11321E0032370B5CD1C9D43083506000C2D1ED26B
S11321F00C25A9421DD8300000F0FAF8254A1468CD
S11322002100002919D1244C2368002B03D130006C
S113221000F044F820602900300000F03FF8431C2F
S11322202CD10C233000336000F0E3F803E0002DE0
S1132230DFDA0C233360002070BD0B685B1B1AD4FB
S11322400B2B03D90B60CC18256003E08C420ED114
S113225063681360300000F0CCF8200007220B30D4
S1132260231D9043C31AE7D05A42E250E4E74B6877
S113227063600C00EEE70C004968C2E70323C41C4A
S11322809C43A042E0D0211A300000F007F8431C20
S1132290DAD1C6E73401002038010020002370B5EC
S11322A0064C050008002360FEF772FD431C03D1B1
S11322B02368002B00D02B6070BDC0464002002074
S11322C070B50C000E25495F00F094F8002803DB7C
S11322D0636D1B18636570BDA389024A1340A38113
S11322E0F9E7C046FFEFFFFFF8B51F008B89050033
S11322F00C001600DB0505D50E23C95E002202235F
S113230000F062F8A389054A28001340A381320033
S11323100E23E15E3B0000F01FF8F8BDFFEFFFFF66
S113232070B50C000E25495F00F04EF8A389421CDD
S113233003D1054A1340A38170BD80225201134387
S1132340A3816065F8E7C046FFEFFFFF10B50E23D9
S1132350C95E00F015F810BD70B505000800110045
S11323600022064C22601A00FFF74AF9431C03D1ED
S11323702368002B00D02B6070BDC04640020020B3
S1132380002370B5064C050008002360FEF712FD1B
S1132390431C03D12368002B00D02B6070BDC046C2
S11323A040020020002370B5064C0500080011000F
S11323B02360FEF702FD431C03D12368002B00D0E9
S11323C02B6070BD4002002070B5050008001100AC
S11323D00022064C22601A00FEF7F4FC431C03D1D1
S11323E02368002B00D02B6070BDC0464002002043
S11323F07047704770B50500080011000022064CB4
S113240022601A00FFF7E8F8431C03D12368002B6D
S113241000D02B6070BDC046400200202E2E2F68D5
S1132420616C2F7372632F68616C5F696F2E630038
S11324302E2E2F68616C2F7372632F68616C5F742A
S1132440696D65722E6300002E2E2F68616C2F73E8
S113245072632F68616C5F75736172745F61737905
S11324606E632E63000000002E2E2F68616C2F73A4
S113247072632F68616C5F75736172745F73796ED8
S1132480632E63002E2E2F68616C2F7574696C7334
S11324902F7372632F7574696C735F6C6973742E18
S11324A0630000002E2E2F68616C2F7574696C73A5
S11324B02F7372632F7574696C735F72696E6762D0
S11324C075666665722E63002E2E2F68706C2F72EF
S11324D074632F68706C5F7274632E630000000075
S11324E0000000000400104000000300098A0000FE
S11324F00000000001000000040010400000030080
S11325002EFF000000000000040000000400104042
S1132510000003002EFF0000000000000000000087
S113252000000000000000000000000000000000A7
S11325300000000000000000000000000000000097
S11325400000000000000000000000000000000087
S113255000000000000000002E2E2F68706C2F7306
S11325606572636F6D2F68706C5F736572636F6DF6
S11325702E63000007001300350090003F1C0B057C
S1132580030102030405060720212223242526270C
S1132590282908090A0B10111213141516172C2DCB
S11325A02E2F00004C00002000000000000000005E
S11325B00000000000000000000000000000000017
S11325C00000000000000000000000000000000007
S11325D000000000000000000000000000000000F7
S11325E000000000000000000000000000000000E7
S11325F000000000000000000000000000000000D7
S11326000000000000000000F8B5C046F8BC08BC9B
S11326109E467047DD000000F8B5C046F8BC08BC13
S10B26209E467047B50000005E
S113262840000020300000200C020020040200209A
S1132638240000201C0200201C00002014010014A7
S11326480100000002000400050014051401000044
S11326580000010000000400000002000000040063
S113266802008030000201004C000020000000003D
S1132678C8250000E8250000A82500000000000087
S1132688000000000000000000000000000000003E
S1132698000000000000000000000000000000002E
S11326A8000000000000000000000000000000001E
S11326B8000000000000000000000000000000000E
S10F26C800000000000000000000000002
S9030000FC
